{
  "contractName": "NftMarket",
  "abi": [
    {
      "inputs": [],
      "stateMutability": "nonpayable",
      "type": "constructor"
    },
    {
      "anonymous": false,
      "inputs": [
        {
          "indexed": true,
          "internalType": "address",
          "name": "owner",
          "type": "address"
        },
        {
          "indexed": true,
          "internalType": "address",
          "name": "approved",
          "type": "address"
        },
        {
          "indexed": true,
          "internalType": "uint256",
          "name": "tokenId",
          "type": "uint256"
        }
      ],
      "name": "Approval",
      "type": "event"
    },
    {
      "anonymous": false,
      "inputs": [
        {
          "indexed": true,
          "internalType": "address",
          "name": "owner",
          "type": "address"
        },
        {
          "indexed": true,
          "internalType": "address",
          "name": "operator",
          "type": "address"
        },
        {
          "indexed": false,
          "internalType": "bool",
          "name": "approved",
          "type": "bool"
        }
      ],
      "name": "ApprovalForAll",
      "type": "event"
    },
    {
      "anonymous": false,
      "inputs": [
        {
          "indexed": false,
          "internalType": "uint256",
          "name": "tokenId",
          "type": "uint256"
        },
        {
          "indexed": false,
          "internalType": "uint256",
          "name": "price",
          "type": "uint256"
        },
        {
          "indexed": false,
          "internalType": "address",
          "name": "creator",
          "type": "address"
        },
        {
          "indexed": false,
          "internalType": "bool",
          "name": "isListed",
          "type": "bool"
        }
      ],
      "name": "NftItemCreated",
      "type": "event"
    },
    {
      "anonymous": false,
      "inputs": [
        {
          "indexed": true,
          "internalType": "address",
          "name": "previousOwner",
          "type": "address"
        },
        {
          "indexed": true,
          "internalType": "address",
          "name": "newOwner",
          "type": "address"
        }
      ],
      "name": "OwnershipTransferred",
      "type": "event"
    },
    {
      "anonymous": false,
      "inputs": [
        {
          "indexed": true,
          "internalType": "address",
          "name": "from",
          "type": "address"
        },
        {
          "indexed": true,
          "internalType": "address",
          "name": "to",
          "type": "address"
        },
        {
          "indexed": true,
          "internalType": "uint256",
          "name": "tokenId",
          "type": "uint256"
        }
      ],
      "name": "Transfer",
      "type": "event"
    },
    {
      "inputs": [],
      "name": "_listedItems",
      "outputs": [
        {
          "internalType": "uint256",
          "name": "_value",
          "type": "uint256"
        }
      ],
      "stateMutability": "view",
      "type": "function",
      "constant": true
    },
    {
      "inputs": [
        {
          "internalType": "address",
          "name": "to",
          "type": "address"
        },
        {
          "internalType": "uint256",
          "name": "tokenId",
          "type": "uint256"
        }
      ],
      "name": "approve",
      "outputs": [],
      "stateMutability": "nonpayable",
      "type": "function"
    },
    {
      "inputs": [
        {
          "internalType": "address",
          "name": "owner",
          "type": "address"
        }
      ],
      "name": "balanceOf",
      "outputs": [
        {
          "internalType": "uint256",
          "name": "",
          "type": "uint256"
        }
      ],
      "stateMutability": "view",
      "type": "function",
      "constant": true
    },
    {
      "inputs": [
        {
          "internalType": "uint256",
          "name": "tokenId",
          "type": "uint256"
        }
      ],
      "name": "getApproved",
      "outputs": [
        {
          "internalType": "address",
          "name": "",
          "type": "address"
        }
      ],
      "stateMutability": "view",
      "type": "function",
      "constant": true
    },
    {
      "inputs": [
        {
          "internalType": "address",
          "name": "owner",
          "type": "address"
        },
        {
          "internalType": "address",
          "name": "operator",
          "type": "address"
        }
      ],
      "name": "isApprovedForAll",
      "outputs": [
        {
          "internalType": "bool",
          "name": "",
          "type": "bool"
        }
      ],
      "stateMutability": "view",
      "type": "function",
      "constant": true
    },
    {
      "inputs": [],
      "name": "listingPrice",
      "outputs": [
        {
          "internalType": "uint256",
          "name": "",
          "type": "uint256"
        }
      ],
      "stateMutability": "view",
      "type": "function",
      "constant": true
    },
    {
      "inputs": [],
      "name": "name",
      "outputs": [
        {
          "internalType": "string",
          "name": "",
          "type": "string"
        }
      ],
      "stateMutability": "view",
      "type": "function",
      "constant": true
    },
    {
      "inputs": [],
      "name": "owner",
      "outputs": [
        {
          "internalType": "address",
          "name": "",
          "type": "address"
        }
      ],
      "stateMutability": "view",
      "type": "function",
      "constant": true
    },
    {
      "inputs": [
        {
          "internalType": "uint256",
          "name": "tokenId",
          "type": "uint256"
        }
      ],
      "name": "ownerOf",
      "outputs": [
        {
          "internalType": "address",
          "name": "",
          "type": "address"
        }
      ],
      "stateMutability": "view",
      "type": "function",
      "constant": true
    },
    {
      "inputs": [],
      "name": "renounceOwnership",
      "outputs": [],
      "stateMutability": "nonpayable",
      "type": "function"
    },
    {
      "inputs": [
        {
          "internalType": "address",
          "name": "from",
          "type": "address"
        },
        {
          "internalType": "address",
          "name": "to",
          "type": "address"
        },
        {
          "internalType": "uint256",
          "name": "tokenId",
          "type": "uint256"
        }
      ],
      "name": "safeTransferFrom",
      "outputs": [],
      "stateMutability": "nonpayable",
      "type": "function"
    },
    {
      "inputs": [
        {
          "internalType": "address",
          "name": "from",
          "type": "address"
        },
        {
          "internalType": "address",
          "name": "to",
          "type": "address"
        },
        {
          "internalType": "uint256",
          "name": "tokenId",
          "type": "uint256"
        },
        {
          "internalType": "bytes",
          "name": "data",
          "type": "bytes"
        }
      ],
      "name": "safeTransferFrom",
      "outputs": [],
      "stateMutability": "nonpayable",
      "type": "function"
    },
    {
      "inputs": [
        {
          "internalType": "address",
          "name": "operator",
          "type": "address"
        },
        {
          "internalType": "bool",
          "name": "approved",
          "type": "bool"
        }
      ],
      "name": "setApprovalForAll",
      "outputs": [],
      "stateMutability": "nonpayable",
      "type": "function"
    },
    {
      "inputs": [
        {
          "internalType": "bytes4",
          "name": "interfaceId",
          "type": "bytes4"
        }
      ],
      "name": "supportsInterface",
      "outputs": [
        {
          "internalType": "bool",
          "name": "",
          "type": "bool"
        }
      ],
      "stateMutability": "view",
      "type": "function",
      "constant": true
    },
    {
      "inputs": [],
      "name": "symbol",
      "outputs": [
        {
          "internalType": "string",
          "name": "",
          "type": "string"
        }
      ],
      "stateMutability": "view",
      "type": "function",
      "constant": true
    },
    {
      "inputs": [
        {
          "internalType": "uint256",
          "name": "tokenId",
          "type": "uint256"
        }
      ],
      "name": "tokenURI",
      "outputs": [
        {
          "internalType": "string",
          "name": "",
          "type": "string"
        }
      ],
      "stateMutability": "view",
      "type": "function",
      "constant": true
    },
    {
      "inputs": [
        {
          "internalType": "address",
          "name": "from",
          "type": "address"
        },
        {
          "internalType": "address",
          "name": "to",
          "type": "address"
        },
        {
          "internalType": "uint256",
          "name": "tokenId",
          "type": "uint256"
        }
      ],
      "name": "transferFrom",
      "outputs": [],
      "stateMutability": "nonpayable",
      "type": "function"
    },
    {
      "inputs": [
        {
          "internalType": "address",
          "name": "newOwner",
          "type": "address"
        }
      ],
      "name": "transferOwnership",
      "outputs": [],
      "stateMutability": "nonpayable",
      "type": "function"
    },
    {
      "inputs": [
        {
          "internalType": "uint256",
          "name": "newPrice",
          "type": "uint256"
        }
      ],
      "name": "setListingPrice",
      "outputs": [],
      "stateMutability": "nonpayable",
      "type": "function"
    },
    {
      "inputs": [
        {
          "internalType": "uint256",
          "name": "tokenId",
          "type": "uint256"
        }
      ],
      "name": "getNftItem",
      "outputs": [
        {
          "components": [
            {
              "internalType": "uint256",
              "name": "tokenId",
              "type": "uint256"
            },
            {
              "internalType": "uint256",
              "name": "price",
              "type": "uint256"
            },
            {
              "internalType": "address",
              "name": "creator",
              "type": "address"
            },
            {
              "internalType": "bool",
              "name": "isListed",
              "type": "bool"
            }
          ],
          "internalType": "struct NftMarket.NftItem",
          "name": "",
          "type": "tuple"
        }
      ],
      "stateMutability": "view",
      "type": "function",
      "constant": true
    },
    {
      "inputs": [],
      "name": "listedItemsCount",
      "outputs": [
        {
          "internalType": "uint256",
          "name": "",
          "type": "uint256"
        }
      ],
      "stateMutability": "view",
      "type": "function",
      "constant": true
    },
    {
      "inputs": [
        {
          "internalType": "string",
          "name": "tokenURI",
          "type": "string"
        }
      ],
      "name": "tokenURIExists",
      "outputs": [
        {
          "internalType": "bool",
          "name": "",
          "type": "bool"
        }
      ],
      "stateMutability": "view",
      "type": "function",
      "constant": true
    },
    {
      "inputs": [],
      "name": "totalSupply",
      "outputs": [
        {
          "internalType": "uint256",
          "name": "",
          "type": "uint256"
        }
      ],
      "stateMutability": "view",
      "type": "function",
      "constant": true
    },
    {
      "inputs": [
        {
          "internalType": "uint256",
          "name": "index",
          "type": "uint256"
        }
      ],
      "name": "tokenByIndex",
      "outputs": [
        {
          "internalType": "uint256",
          "name": "",
          "type": "uint256"
        }
      ],
      "stateMutability": "view",
      "type": "function",
      "constant": true
    },
    {
      "inputs": [
        {
          "internalType": "address",
          "name": "owner",
          "type": "address"
        },
        {
          "internalType": "uint256",
          "name": "index",
          "type": "uint256"
        }
      ],
      "name": "tokenOfOwnerByIndex",
      "outputs": [
        {
          "internalType": "uint256",
          "name": "",
          "type": "uint256"
        }
      ],
      "stateMutability": "view",
      "type": "function",
      "constant": true
    },
    {
      "inputs": [],
      "name": "getAllNftsOnSale",
      "outputs": [
        {
          "components": [
            {
              "internalType": "uint256",
              "name": "tokenId",
              "type": "uint256"
            },
            {
              "internalType": "uint256",
              "name": "price",
              "type": "uint256"
            },
            {
              "internalType": "address",
              "name": "creator",
              "type": "address"
            },
            {
              "internalType": "bool",
              "name": "isListed",
              "type": "bool"
            }
          ],
          "internalType": "struct NftMarket.NftItem[]",
          "name": "",
          "type": "tuple[]"
        }
      ],
      "stateMutability": "view",
      "type": "function",
      "constant": true
    },
    {
      "inputs": [],
      "name": "getOwnedNfts",
      "outputs": [
        {
          "components": [
            {
              "internalType": "uint256",
              "name": "tokenId",
              "type": "uint256"
            },
            {
              "internalType": "uint256",
              "name": "price",
              "type": "uint256"
            },
            {
              "internalType": "address",
              "name": "creator",
              "type": "address"
            },
            {
              "internalType": "bool",
              "name": "isListed",
              "type": "bool"
            }
          ],
          "internalType": "struct NftMarket.NftItem[]",
          "name": "",
          "type": "tuple[]"
        }
      ],
      "stateMutability": "view",
      "type": "function",
      "constant": true
    },
    {
      "inputs": [
        {
          "internalType": "string",
          "name": "tokenURI",
          "type": "string"
        },
        {
          "internalType": "uint256",
          "name": "price",
          "type": "uint256"
        }
      ],
      "name": "mintToken",
      "outputs": [
        {
          "internalType": "uint256",
          "name": "",
          "type": "uint256"
        }
      ],
      "stateMutability": "payable",
      "type": "function",
      "payable": true
    },
    {
      "inputs": [
        {
          "internalType": "uint256",
          "name": "tokenId",
          "type": "uint256"
        }
      ],
      "name": "buyNft",
      "outputs": [],
      "stateMutability": "payable",
      "type": "function",
      "payable": true
    },
    {
      "inputs": [
        {
          "internalType": "uint256",
          "name": "tokenId",
          "type": "uint256"
        },
        {
          "internalType": "uint256",
          "name": "newPrice",
          "type": "uint256"
        }
      ],
      "name": "placeNftOnSale",
      "outputs": [],
      "stateMutability": "payable",
      "type": "function",
      "payable": true
    }
  ],
  "bytecode": "0x60806040526658d15e176280006008553480156200001c57600080fd5b506040518060400160405280600c81526020017f4372656174757265734e465400000000000000000000000000000000000000008152506040518060400160405280600481526020017f434e46540000000000000000000000000000000000000000000000000000000081525081600090816200009a91906200041d565b508060019081620000ac91906200041d565b505050620000cf620000c3620000d560201b60201c565b620000dd60201b60201c565b62000504565b600033905090565b6000600760009054906101000a900473ffffffffffffffffffffffffffffffffffffffff16905081600760006101000a81548173ffffffffffffffffffffffffffffffffffffffff021916908373ffffffffffffffffffffffffffffffffffffffff1602179055508173ffffffffffffffffffffffffffffffffffffffff168173ffffffffffffffffffffffffffffffffffffffff167f8be0079c531659141344cd1fd0a4f28419497f9722a3daafe3b4186f6b6457e060405160405180910390a35050565b600081519050919050565b7f4e487b7100000000000000000000000000000000000000000000000000000000600052604160045260246000fd5b7f4e487b7100000000000000000000000000000000000000000000000000000000600052602260045260246000fd5b600060028204905060018216806200022557607f821691505b6020821081036200023b576200023a620001dd565b5b50919050565b60008190508160005260206000209050919050565b60006020601f8301049050919050565b600082821b905092915050565b600060088302620002a57fffffffffffffffffffffffffffffffffffffffffffffffffffffffffffffffff8262000266565b620002b1868362000266565b95508019841693508086168417925050509392505050565b6000819050919050565b6000819050919050565b6000620002fe620002f8620002f284620002c9565b620002d3565b620002c9565b9050919050565b6000819050919050565b6200031a83620002dd565b62000332620003298262000305565b84845462000273565b825550505050565b600090565b620003496200033a565b620003568184846200030f565b505050565b5b818110156200037e57620003726000826200033f565b6001810190506200035c565b5050565b601f821115620003cd57620003978162000241565b620003a28462000256565b81016020851015620003b2578190505b620003ca620003c18562000256565b8301826200035b565b50505b505050565b600082821c905092915050565b6000620003f260001984600802620003d2565b1980831691505092915050565b60006200040d8383620003df565b9150826002028217905092915050565b6200042882620001a3565b67ffffffffffffffff811115620004445762000443620001ae565b5b6200045082546200020c565b6200045d82828562000382565b600060209050601f83116001811462000495576000841562000480578287015190505b6200048c8582620003ff565b865550620004fc565b601f198416620004a58662000241565b60005b82811015620004cf57848901518255600182019150602085019450602081019050620004a8565b86831015620004ef5784890151620004eb601f891682620003df565b8355505b6001600288020188555050505b505050505050565b61493280620005146000396000f3fe6080604052600436106101cd5760003560e01c80636f1a0af5116100f7578063a22cb46511610095578063c87b56dd11610064578063c87b56dd14610687578063ccb4918d146106c4578063e985e9c5146106ef578063f2fde38b1461072c576101cd565b8063a22cb465146105da578063b88d4fde14610603578063c046372c1461062c578063c78f19f91461065c576101cd565b8063715018a6116100d1578063715018a6146105445780637c726b691461055b5780638da5cb5b1461058457806395d89b41146105af576101cd565b80636f1a0af51461049f57806370a08231146104dc57806370cbcb4314610519576101cd565b806323b872dd1161016f57806342842e0e1161013e57806342842e0e146103bf57806343d32ae7146103e85780634f6ccce7146104255780636352211e14610462576101cd565b806323b872dd14610312578063243adbdd1461033b5780632f745c591461035757806336b536be14610394576101cd565b8063095ea7b3116101ab578063095ea7b31461027757806318160ddd146102a05780631c36609b146102cb57806321f422e5146102f6576101cd565b806301ffc9a7146101d257806306fdde031461020f578063081812fc1461023a575b600080fd5b3480156101de57600080fd5b506101f960048036038101906101f49190612f4c565b610755565b6040516102069190612f94565b60405180910390f35b34801561021b57600080fd5b50610224610837565b604051610231919061303f565b60405180910390f35b34801561024657600080fd5b50610261600480360381019061025c9190613097565b6108c9565b60405161026e9190613105565b60405180910390f35b34801561028357600080fd5b5061029e6004803603810190610299919061314c565b61090f565b005b3480156102ac57600080fd5b506102b5610a26565b6040516102c2919061319b565b60405180910390f35b3480156102d757600080fd5b506102e0610a33565b6040516102ed919061319b565b60405180910390f35b610310600480360381019061030b91906131b6565b610a3f565b005b34801561031e57600080fd5b50610339600480360381019061033491906131f6565b610bbb565b005b61035560048036038101906103509190613097565b610c1b565b005b34801561036357600080fd5b5061037e6004803603810190610379919061314c565b610d83565b60405161038b919061319b565b60405180910390f35b3480156103a057600080fd5b506103a9610e28565b6040516103b6919061337a565b60405180910390f35b3480156103cb57600080fd5b506103e660048036038101906103e191906131f6565b610fc2565b005b3480156103f457600080fd5b5061040f600480360381019061040a91906134d1565b610fe2565b60405161041c9190612f94565b60405180910390f35b34801561043157600080fd5b5061044c60048036038101906104479190613097565b61101e565b604051610459919061319b565b60405180910390f35b34801561046e57600080fd5b5061048960048036038101906104849190613097565b61108f565b6040516104969190613105565b60405180910390f35b3480156104ab57600080fd5b506104c660048036038101906104c19190613097565b611115565b6040516104d3919061356f565b60405180910390f35b3480156104e857600080fd5b5061050360048036038101906104fe919061358a565b6111c7565b604051610510919061319b565b60405180910390f35b34801561052557600080fd5b5061052e61127e565b60405161053b919061337a565b60405180910390f35b34801561055057600080fd5b506105596113e2565b005b34801561056757600080fd5b50610582600480360381019061057d9190613097565b6113f6565b005b34801561059057600080fd5b5061059961144b565b6040516105a69190613105565b60405180910390f35b3480156105bb57600080fd5b506105c4611475565b6040516105d1919061303f565b60405180910390f35b3480156105e657600080fd5b5061060160048036038101906105fc91906135e3565b611507565b005b34801561060f57600080fd5b5061062a600480360381019061062591906136c4565b61151d565b005b61064660048036038101906106419190613747565b61157f565b604051610653919061319b565b60405180910390f35b34801561066857600080fd5b5061067161168f565b60405161067e919061319b565b60405180910390f35b34801561069357600080fd5b506106ae60048036038101906106a99190613097565b611695565b6040516106bb919061303f565b60405180910390f35b3480156106d057600080fd5b506106d96117a7565b6040516106e6919061319b565b60405180910390f35b3480156106fb57600080fd5b50610716600480360381019061071191906137a3565b6117b8565b6040516107239190612f94565b60405180910390f35b34801561073857600080fd5b50610753600480360381019061074e919061358a565b61184c565b005b60007f80ac58cd000000000000000000000000000000000000000000000000000000007bffffffffffffffffffffffffffffffffffffffffffffffffffffffff1916827bffffffffffffffffffffffffffffffffffffffffffffffffffffffff1916148061082057507f5b5e139f000000000000000000000000000000000000000000000000000000007bffffffffffffffffffffffffffffffffffffffffffffffffffffffff1916827bffffffffffffffffffffffffffffffffffffffffffffffffffffffff1916145b80610830575061082f826118cf565b5b9050919050565b60606000805461084690613812565b80601f016020809104026020016040519081016040528092919081815260200182805461087290613812565b80156108bf5780601f10610894576101008083540402835291602001916108bf565b820191906000526020600020905b8154815290600101906020018083116108a257829003601f168201915b5050505050905090565b60006108d482611939565b6004600083815260200190815260200160002060009054906101000a900473ffffffffffffffffffffffffffffffffffffffff169050919050565b600061091a8261108f565b90508073ffffffffffffffffffffffffffffffffffffffff168373ffffffffffffffffffffffffffffffffffffffff160361098a576040517f08c379a0000000000000000000000000000000000000000000000000000000008152600401610981906138b5565b60405180910390fd5b8073ffffffffffffffffffffffffffffffffffffffff166109a9611984565b73ffffffffffffffffffffffffffffffffffffffff1614806109d857506109d7816109d2611984565b6117b8565b5b610a17576040517f08c379a0000000000000000000000000000000000000000000000000000000008152600401610a0e90613947565b60405180910390fd5b610a21838361198c565b505050565b6000600f80549050905090565b60098060000154905081565b3373ffffffffffffffffffffffffffffffffffffffff16610a5f8361108f565b73ffffffffffffffffffffffffffffffffffffffff1614610ab5576040517f08c379a0000000000000000000000000000000000000000000000000000000008152600401610aac906139b3565b60405180910390fd5b60001515600c600084815260200190815260200160002060020160149054906101000a900460ff16151514610b1f576040517f08c379a0000000000000000000000000000000000000000000000000000000008152600401610b1690613a1f565b60405180910390fd5b6008543414610b63576040517f08c379a0000000000000000000000000000000000000000000000000000000008152600401610b5a90613ab1565b60405180910390fd5b6001600c600084815260200190815260200160002060020160146101000a81548160ff02191690831515021790555080600c600084815260200190815260200160002060010181905550610bb76009611a45565b5050565b610bcc610bc6611984565b82611a5b565b610c0b576040517f08c379a0000000000000000000000000000000000000000000000000000000008152600401610c0290613b43565b60405180910390fd5b610c16838383611af0565b505050565b6000600c60008381526020019081526020016000206001015490506000610c418361108f565b90508073ffffffffffffffffffffffffffffffffffffffff163373ffffffffffffffffffffffffffffffffffffffff1603610cb1576040517f08c379a0000000000000000000000000000000000000000000000000000000008152600401610ca890613baf565b60405180910390fd5b813414610cf3576040517f08c379a0000000000000000000000000000000000000000000000000000000008152600401610cea90613c1b565b60405180910390fd5b6000600c600085815260200190815260200160002060020160146101000a81548160ff021916908315150217905550610d2c6009611de9565b610d37813385611af0565b8073ffffffffffffffffffffffffffffffffffffffff166108fc349081150290604051600060405180830381858888f19350505050158015610d7d573d6000803e3d6000fd5b50505050565b6000610d8e836111c7565b8210610dcf576040517f08c379a0000000000000000000000000000000000000000000000000000000008152600401610dc690613c87565b60405180910390fd5b600d60008473ffffffffffffffffffffffffffffffffffffffff1673ffffffffffffffffffffffffffffffffffffffff168152602001908152602001600020600083815260200190815260200160002054905092915050565b60606000610e34610a26565b9050600080610e436009611e45565b67ffffffffffffffff811115610e5c57610e5b6133a6565b5b604051908082528060200260200182016040528015610e9557816020015b610e82612ea0565b815260200190600190039081610e7a5790505b50905060005b83811015610fb8576000610eae8261101e565b90506000600c60008381526020019081526020016000209050600115158160020160149054906101000a900460ff16151503610fa3578060405180608001604052908160008201548152602001600182015481526020016002820160009054906101000a900473ffffffffffffffffffffffffffffffffffffffff1673ffffffffffffffffffffffffffffffffffffffff1673ffffffffffffffffffffffffffffffffffffffff1681526020016002820160149054906101000a900460ff161515151581525050848681518110610f8857610f87613ca7565b5b6020026020010181905250600185610fa09190613d05565b94505b50508080610fb090613d39565b915050610e9b565b5080935050505090565b610fdd8383836040518060200160405280600081525061151d565b505050565b600060011515600b83604051610ff89190613dbd565b908152602001604051809103902060009054906101000a900460ff161515149050919050565b6000611028610a26565b8210611069576040517f08c379a000000000000000000000000000000000000000000000000000000000815260040161106090613c87565b60405180910390fd5b600f828154811061107d5761107c613ca7565b5b90600052602060002001549050919050565b60008061109b83611e53565b9050600073ffffffffffffffffffffffffffffffffffffffff168173ffffffffffffffffffffffffffffffffffffffff160361110c576040517f08c379a000000000000000000000000000000000000000000000000000000000815260040161110390613e20565b60405180910390fd5b80915050919050565b61111d612ea0565b600c600083815260200190815260200160002060405180608001604052908160008201548152602001600182015481526020016002820160009054906101000a900473ffffffffffffffffffffffffffffffffffffffff1673ffffffffffffffffffffffffffffffffffffffff1673ffffffffffffffffffffffffffffffffffffffff1681526020016002820160149054906101000a900460ff1615151515815250509050919050565b60008073ffffffffffffffffffffffffffffffffffffffff168273ffffffffffffffffffffffffffffffffffffffff1603611237576040517f08c379a000000000000000000000000000000000000000000000000000000000815260040161122e90613eb2565b60405180910390fd5b600360008373ffffffffffffffffffffffffffffffffffffffff1673ffffffffffffffffffffffffffffffffffffffff168152602001908152602001600020549050919050565b6060600061128b336111c7565b905060008167ffffffffffffffff8111156112a9576112a86133a6565b5b6040519080825280602002602001820160405280156112e257816020015b6112cf612ea0565b8152602001906001900390816112c75790505b50905060005b828110156113d95760006112fc3383610d83565b90506000600c600083815260200190815260200160002090508060405180608001604052908160008201548152602001600182015481526020016002820160009054906101000a900473ffffffffffffffffffffffffffffffffffffffff1673ffffffffffffffffffffffffffffffffffffffff1673ffffffffffffffffffffffffffffffffffffffff1681526020016002820160149054906101000a900460ff1615151515815250508484815181106113b9576113b8613ca7565b5b6020026020010181905250505080806113d190613d39565b9150506112e8565b50809250505090565b6113ea611e90565b6113f46000611f0e565b565b6113fe611e90565b60008111611441576040517f08c379a000000000000000000000000000000000000000000000000000000000815260040161143890613f1e565b60405180910390fd5b8060088190555050565b6000600760009054906101000a900473ffffffffffffffffffffffffffffffffffffffff16905090565b60606001805461148490613812565b80601f01602080910402602001604051908101604052809291908181526020018280546114b090613812565b80156114fd5780601f106114d2576101008083540402835291602001916114fd565b820191906000526020600020905b8154815290600101906020018083116114e057829003601f168201915b5050505050905090565b611519611512611984565b8383611fd4565b5050565b61152e611528611984565b83611a5b565b61156d576040517f08c379a000000000000000000000000000000000000000000000000000000000815260040161156490613b43565b60405180910390fd5b61157984848484612140565b50505050565b600061158a83610fe2565b156115ca576040517f08c379a00000000000000000000000000000000000000000000000000000000081526004016115c190613f8a565b60405180910390fd5b600854341461160e576040517f08c379a000000000000000000000000000000000000000000000000000000000815260040161160590613ab1565b60405180910390fd5b611618600a611a45565b6116226009611a45565b600061162e600a611e45565b905061163a338261219c565b61164481856121ba565b61164e8184612227565b6001600b856040516116609190613dbd565b908152602001604051809103902060006101000a81548160ff0219169083151502179055508091505092915050565b60085481565b60606116a082611939565b60006006600084815260200190815260200160002080546116c090613812565b80601f01602080910402602001604051908101604052809291908181526020018280546116ec90613812565b80156117395780601f1061170e57610100808354040283529160200191611739565b820191906000526020600020905b81548152906001019060200180831161171c57829003601f168201915b50505050509050600061174a612377565b9050600081510361175f5781925050506117a2565b60008251111561179457808260405160200161177c929190613faa565b604051602081830303815290604052925050506117a2565b61179d8461238e565b925050505b919050565b60006117b36009611e45565b905090565b6000600560008473ffffffffffffffffffffffffffffffffffffffff1673ffffffffffffffffffffffffffffffffffffffff16815260200190815260200160002060008373ffffffffffffffffffffffffffffffffffffffff1673ffffffffffffffffffffffffffffffffffffffff16815260200190815260200160002060009054906101000a900460ff16905092915050565b611854611e90565b600073ffffffffffffffffffffffffffffffffffffffff168173ffffffffffffffffffffffffffffffffffffffff16036118c3576040517f08c379a00000000000000000000000000000000000000000000000000000000081526004016118ba90614040565b60405180910390fd5b6118cc81611f0e565b50565b60007f01ffc9a7000000000000000000000000000000000000000000000000000000007bffffffffffffffffffffffffffffffffffffffffffffffffffffffff1916827bffffffffffffffffffffffffffffffffffffffffffffffffffffffff1916149050919050565b611942816123f6565b611981576040517f08c379a000000000000000000000000000000000000000000000000000000000815260040161197890613e20565b60405180910390fd5b50565b600033905090565b816004600083815260200190815260200160002060006101000a81548173ffffffffffffffffffffffffffffffffffffffff021916908373ffffffffffffffffffffffffffffffffffffffff160217905550808273ffffffffffffffffffffffffffffffffffffffff166119ff8361108f565b73ffffffffffffffffffffffffffffffffffffffff167f8c5be1e5ebec7d5bd14f71427d1e84f3dd0314c0f7b2291e5b200ac8c7c3b92560405160405180910390a45050565b6001816000016000828254019250508190555050565b600080611a678361108f565b90508073ffffffffffffffffffffffffffffffffffffffff168473ffffffffffffffffffffffffffffffffffffffff161480611aa95750611aa881856117b8565b5b80611ae757508373ffffffffffffffffffffffffffffffffffffffff16611acf846108c9565b73ffffffffffffffffffffffffffffffffffffffff16145b91505092915050565b8273ffffffffffffffffffffffffffffffffffffffff16611b108261108f565b73ffffffffffffffffffffffffffffffffffffffff1614611b66576040517f08c379a0000000000000000000000000000000000000000000000000000000008152600401611b5d906140d2565b60405180910390fd5b600073ffffffffffffffffffffffffffffffffffffffff168273ffffffffffffffffffffffffffffffffffffffff1603611bd5576040517f08c379a0000000000000000000000000000000000000000000000000000000008152600401611bcc90614164565b60405180910390fd5b611be28383836001612437565b8273ffffffffffffffffffffffffffffffffffffffff16611c028261108f565b73ffffffffffffffffffffffffffffffffffffffff1614611c58576040517f08c379a0000000000000000000000000000000000000000000000000000000008152600401611c4f906140d2565b60405180910390fd5b6004600082815260200190815260200160002060006101000a81549073ffffffffffffffffffffffffffffffffffffffff02191690556001600360008573ffffffffffffffffffffffffffffffffffffffff1673ffffffffffffffffffffffffffffffffffffffff168152602001908152602001600020600082825403925050819055506001600360008473ffffffffffffffffffffffffffffffffffffffff1673ffffffffffffffffffffffffffffffffffffffff16815260200190815260200160002060008282540192505081905550816002600083815260200190815260200160002060006101000a81548173ffffffffffffffffffffffffffffffffffffffff021916908373ffffffffffffffffffffffffffffffffffffffff160217905550808273ffffffffffffffffffffffffffffffffffffffff168473ffffffffffffffffffffffffffffffffffffffff167fddf252ad1be2c89b69c2b068fc378daa952ba7f163c4a11628f55a4df523b3ef60405160405180910390a4611de4838383600161254b565b505050565b60008160000154905060008111611e35576040517f08c379a0000000000000000000000000000000000000000000000000000000008152600401611e2c906141d0565b60405180910390fd5b6001810382600001819055505050565b600081600001549050919050565b60006002600083815260200190815260200160002060009054906101000a900473ffffffffffffffffffffffffffffffffffffffff169050919050565b611e98611984565b73ffffffffffffffffffffffffffffffffffffffff16611eb661144b565b73ffffffffffffffffffffffffffffffffffffffff1614611f0c576040517f08c379a0000000000000000000000000000000000000000000000000000000008152600401611f039061423c565b60405180910390fd5b565b6000600760009054906101000a900473ffffffffffffffffffffffffffffffffffffffff16905081600760006101000a81548173ffffffffffffffffffffffffffffffffffffffff021916908373ffffffffffffffffffffffffffffffffffffffff1602179055508173ffffffffffffffffffffffffffffffffffffffff168173ffffffffffffffffffffffffffffffffffffffff167f8be0079c531659141344cd1fd0a4f28419497f9722a3daafe3b4186f6b6457e060405160405180910390a35050565b8173ffffffffffffffffffffffffffffffffffffffff168373ffffffffffffffffffffffffffffffffffffffff1603612042576040517f08c379a0000000000000000000000000000000000000000000000000000000008152600401612039906142a8565b60405180910390fd5b80600560008573ffffffffffffffffffffffffffffffffffffffff1673ffffffffffffffffffffffffffffffffffffffff16815260200190815260200160002060008473ffffffffffffffffffffffffffffffffffffffff1673ffffffffffffffffffffffffffffffffffffffff16815260200190815260200160002060006101000a81548160ff0219169083151502179055508173ffffffffffffffffffffffffffffffffffffffff168373ffffffffffffffffffffffffffffffffffffffff167f17307eab39ab6107e8899845ad3d59bd9653f200f220920489ca2b5937696c31836040516121339190612f94565b60405180910390a3505050565b61214b848484611af0565b61215784848484612551565b612196576040517f08c379a000000000000000000000000000000000000000000000000000000000815260040161218d9061433a565b60405180910390fd5b50505050565b6121b68282604051806020016040528060008152506126d8565b5050565b6121c3826123f6565b612202576040517f08c379a00000000000000000000000000000000000000000000000000000000081526004016121f9906143cc565b60405180910390fd5b806006600084815260200190815260200160002090816122229190614598565b505050565b6000811161226a576040517f08c379a000000000000000000000000000000000000000000000000000000000815260040161226190613f1e565b60405180910390fd5b60405180608001604052808381526020018281526020013373ffffffffffffffffffffffffffffffffffffffff16815260200160011515815250600c6000848152602001908152602001600020600082015181600001556020820151816001015560408201518160020160006101000a81548173ffffffffffffffffffffffffffffffffffffffff021916908373ffffffffffffffffffffffffffffffffffffffff16021790555060608201518160020160146101000a81548160ff0219169083151502179055509050507f470031062672bc0246e132c723a729c4676710ec663a29e86c88678032daddea828233600160405161236b949392919061466a565b60405180910390a15050565b606060405180602001604052806000815250905090565b606061239982611939565b60006123a3612377565b905060008151116123c357604051806020016040528060008152506123ee565b806123cd84612733565b6040516020016123de929190613faa565b6040516020818303038152906040525b915050919050565b60008073ffffffffffffffffffffffffffffffffffffffff1661241883611e53565b73ffffffffffffffffffffffffffffffffffffffff1614159050919050565b61244384848484612801565b600073ffffffffffffffffffffffffffffffffffffffff168473ffffffffffffffffffffffffffffffffffffffff16036124855761248082612807565b6124c4565b8273ffffffffffffffffffffffffffffffffffffffff168473ffffffffffffffffffffffffffffffffffffffff16146124c3576124c28483612850565b5b5b600073ffffffffffffffffffffffffffffffffffffffff168373ffffffffffffffffffffffffffffffffffffffff160361250657612501826129bd565b612545565b8373ffffffffffffffffffffffffffffffffffffffff168373ffffffffffffffffffffffffffffffffffffffff1614612544576125438383612a8e565b5b5b50505050565b50505050565b60006125728473ffffffffffffffffffffffffffffffffffffffff16612b0d565b156126cb578373ffffffffffffffffffffffffffffffffffffffff1663150b7a0261259b611984565b8786866040518563ffffffff1660e01b81526004016125bd9493929190614704565b6020604051808303816000875af19250505080156125f957506040513d601f19601f820116820180604052508101906125f69190614765565b60015b61267b573d8060008114612629576040519150601f19603f3d011682016040523d82523d6000602084013e61262e565b606091505b506000815103612673576040517f08c379a000000000000000000000000000000000000000000000000000000000815260040161266a9061433a565b60405180910390fd5b805181602001fd5b63150b7a0260e01b7bffffffffffffffffffffffffffffffffffffffffffffffffffffffff1916817bffffffffffffffffffffffffffffffffffffffffffffffffffffffff1916149150506126d0565b600190505b949350505050565b6126e28383612b30565b6126ef6000848484612551565b61272e576040517f08c379a00000000000000000000000000000000000000000000000000000000081526004016127259061433a565b60405180910390fd5b505050565b60606000600161274284612d4d565b01905060008167ffffffffffffffff811115612761576127606133a6565b5b6040519080825280601f01601f1916602001820160405280156127935781602001600182028036833780820191505090505b509050600082602001820190505b6001156127f6578080600190039150507f3031323334353637383961626364656600000000000000000000000000000000600a86061a8153600a85816127ea576127e9614792565b5b049450600085036127a1575b819350505050919050565b50505050565b600f805490506010600083815260200190815260200160002081905550600f81908060018154018082558091505060019003906000526020600020016000909190919091505550565b6000600161285d846111c7565b61286791906147c1565b90506000600e600084815260200190815260200160002054905081811461294c576000600d60008673ffffffffffffffffffffffffffffffffffffffff1673ffffffffffffffffffffffffffffffffffffffff168152602001908152602001600020600084815260200190815260200160002054905080600d60008773ffffffffffffffffffffffffffffffffffffffff1673ffffffffffffffffffffffffffffffffffffffff16815260200190815260200160002060008481526020019081526020016000208190555081600e600083815260200190815260200160002081905550505b600e600084815260200190815260200160002060009055600d60008573ffffffffffffffffffffffffffffffffffffffff1673ffffffffffffffffffffffffffffffffffffffff16815260200190815260200160002060008381526020019081526020016000206000905550505050565b60006001600f805490506129d191906147c1565b90506000601060008481526020019081526020016000205490506000600f8381548110612a0157612a00613ca7565b5b9060005260206000200154905080600f8381548110612a2357612a22613ca7565b5b90600052602060002001819055508160106000838152602001908152602001600020819055506010600085815260200190815260200160002060009055600f805480612a7257612a716147f5565b5b6001900381819060005260206000200160009055905550505050565b6000612a99836111c7565b905081600d60008573ffffffffffffffffffffffffffffffffffffffff1673ffffffffffffffffffffffffffffffffffffffff16815260200190815260200160002060008381526020019081526020016000208190555080600e600084815260200190815260200160002081905550505050565b6000808273ffffffffffffffffffffffffffffffffffffffff163b119050919050565b600073ffffffffffffffffffffffffffffffffffffffff168273ffffffffffffffffffffffffffffffffffffffff1603612b9f576040517f08c379a0000000000000000000000000000000000000000000000000000000008152600401612b9690614870565b60405180910390fd5b612ba8816123f6565b15612be8576040517f08c379a0000000000000000000000000000000000000000000000000000000008152600401612bdf906148dc565b60405180910390fd5b612bf6600083836001612437565b612bff816123f6565b15612c3f576040517f08c379a0000000000000000000000000000000000000000000000000000000008152600401612c36906148dc565b60405180910390fd5b6001600360008473ffffffffffffffffffffffffffffffffffffffff1673ffffffffffffffffffffffffffffffffffffffff16815260200190815260200160002060008282540192505081905550816002600083815260200190815260200160002060006101000a81548173ffffffffffffffffffffffffffffffffffffffff021916908373ffffffffffffffffffffffffffffffffffffffff160217905550808273ffffffffffffffffffffffffffffffffffffffff16600073ffffffffffffffffffffffffffffffffffffffff167fddf252ad1be2c89b69c2b068fc378daa952ba7f163c4a11628f55a4df523b3ef60405160405180910390a4612d4960008383600161254b565b5050565b600080600090507a184f03e93ff9f4daa797ed6e38ed64bf6a1f0100000000000000008310612dab577a184f03e93ff9f4daa797ed6e38ed64bf6a1f0100000000000000008381612da157612da0614792565b5b0492506040810190505b6d04ee2d6d415b85acef81000000008310612de8576d04ee2d6d415b85acef81000000008381612dde57612ddd614792565b5b0492506020810190505b662386f26fc100008310612e1757662386f26fc100008381612e0d57612e0c614792565b5b0492506010810190505b6305f5e1008310612e40576305f5e1008381612e3657612e35614792565b5b0492506008810190505b6127108310612e65576127108381612e5b57612e5a614792565b5b0492506004810190505b60648310612e885760648381612e7e57612e7d614792565b5b0492506002810190505b600a8310612e97576001810190505b80915050919050565b60405180608001604052806000815260200160008152602001600073ffffffffffffffffffffffffffffffffffffffff1681526020016000151581525090565b6000604051905090565b600080fd5b600080fd5b60007fffffffff0000000000000000000000000000000000000000000000000000000082169050919050565b612f2981612ef4565b8114612f3457600080fd5b50565b600081359050612f4681612f20565b92915050565b600060208284031215612f6257612f61612eea565b5b6000612f7084828501612f37565b91505092915050565b60008115159050919050565b612f8e81612f79565b82525050565b6000602082019050612fa96000830184612f85565b92915050565b600081519050919050565b600082825260208201905092915050565b60005b83811015612fe9578082015181840152602081019050612fce565b60008484015250505050565b6000601f19601f8301169050919050565b600061301182612faf565b61301b8185612fba565b935061302b818560208601612fcb565b61303481612ff5565b840191505092915050565b600060208201905081810360008301526130598184613006565b905092915050565b6000819050919050565b61307481613061565b811461307f57600080fd5b50565b6000813590506130918161306b565b92915050565b6000602082840312156130ad576130ac612eea565b5b60006130bb84828501613082565b91505092915050565b600073ffffffffffffffffffffffffffffffffffffffff82169050919050565b60006130ef826130c4565b9050919050565b6130ff816130e4565b82525050565b600060208201905061311a60008301846130f6565b92915050565b613129816130e4565b811461313457600080fd5b50565b60008135905061314681613120565b92915050565b6000806040838503121561316357613162612eea565b5b600061317185828601613137565b925050602061318285828601613082565b9150509250929050565b61319581613061565b82525050565b60006020820190506131b0600083018461318c565b92915050565b600080604083850312156131cd576131cc612eea565b5b60006131db85828601613082565b92505060206131ec85828601613082565b9150509250929050565b60008060006060848603121561320f5761320e612eea565b5b600061321d86828701613137565b935050602061322e86828701613137565b925050604061323f86828701613082565b9150509250925092565b600081519050919050565b600082825260208201905092915050565b6000819050602082019050919050565b61327e81613061565b82525050565b61328d816130e4565b82525050565b61329c81612f79565b82525050565b6080820160008201516132b86000850182613275565b5060208201516132cb6020850182613275565b5060408201516132de6040850182613284565b5060608201516132f16060850182613293565b50505050565b600061330383836132a2565b60808301905092915050565b6000602082019050919050565b600061332782613249565b6133318185613254565b935061333c83613265565b8060005b8381101561336d57815161335488826132f7565b975061335f8361330f565b925050600181019050613340565b5085935050505092915050565b60006020820190508181036000830152613394818461331c565b905092915050565b600080fd5b600080fd5b7f4e487b7100000000000000000000000000000000000000000000000000000000600052604160045260246000fd5b6133de82612ff5565b810181811067ffffffffffffffff821117156133fd576133fc6133a6565b5b80604052505050565b6000613410612ee0565b905061341c82826133d5565b919050565b600067ffffffffffffffff82111561343c5761343b6133a6565b5b61344582612ff5565b9050602081019050919050565b82818337600083830152505050565b600061347461346f84613421565b613406565b9050828152602081018484840111156134905761348f6133a1565b5b61349b848285613452565b509392505050565b600082601f8301126134b8576134b761339c565b5b81356134c8848260208601613461565b91505092915050565b6000602082840312156134e7576134e6612eea565b5b600082013567ffffffffffffffff81111561350557613504612eef565b5b613511848285016134a3565b91505092915050565b6080820160008201516135306000850182613275565b5060208201516135436020850182613275565b5060408201516135566040850182613284565b5060608201516135696060850182613293565b50505050565b6000608082019050613584600083018461351a565b92915050565b6000602082840312156135a05761359f612eea565b5b60006135ae84828501613137565b91505092915050565b6135c081612f79565b81146135cb57600080fd5b50565b6000813590506135dd816135b7565b92915050565b600080604083850312156135fa576135f9612eea565b5b600061360885828601613137565b9250506020613619858286016135ce565b9150509250929050565b600067ffffffffffffffff82111561363e5761363d6133a6565b5b61364782612ff5565b9050602081019050919050565b600061366761366284613623565b613406565b905082815260208101848484011115613683576136826133a1565b5b61368e848285613452565b509392505050565b600082601f8301126136ab576136aa61339c565b5b81356136bb848260208601613654565b91505092915050565b600080600080608085870312156136de576136dd612eea565b5b60006136ec87828801613137565b94505060206136fd87828801613137565b935050604061370e87828801613082565b925050606085013567ffffffffffffffff81111561372f5761372e612eef565b5b61373b87828801613696565b91505092959194509250565b6000806040838503121561375e5761375d612eea565b5b600083013567ffffffffffffffff81111561377c5761377b612eef565b5b613788858286016134a3565b925050602061379985828601613082565b9150509250929050565b600080604083850312156137ba576137b9612eea565b5b60006137c885828601613137565b92505060206137d985828601613137565b9150509250929050565b7f4e487b7100000000000000000000000000000000000000000000000000000000600052602260045260246000fd5b6000600282049050600182168061382a57607f821691505b60208210810361383d5761383c6137e3565b5b50919050565b7f4552433732313a20617070726f76616c20746f2063757272656e74206f776e6560008201527f7200000000000000000000000000000000000000000000000000000000000000602082015250565b600061389f602183612fba565b91506138aa82613843565b604082019050919050565b600060208201905081810360008301526138ce81613892565b9050919050565b7f4552433732313a20617070726f76652063616c6c6572206973206e6f7420746f60008201527f6b656e206f776e6572206f7220617070726f76656420666f7220616c6c000000602082015250565b6000613931603d83612fba565b915061393c826138d5565b604082019050919050565b6000602082019050818103600083015261396081613924565b9050919050565b7f596f7520617265206e6f74206f776e6572206f662074686973206e6674000000600082015250565b600061399d601d83612fba565b91506139a882613967565b602082019050919050565b600060208201905081810360008301526139cc81613990565b9050919050565b7f4974656d20697320616c7265616479206f6e2073616c65000000000000000000600082015250565b6000613a09601783612fba565b9150613a14826139d3565b602082019050919050565b60006020820190508181036000830152613a38816139fc565b9050919050565b7f5072696365206d75737420626520657175616c20746f206c697374696e67207060008201527f7269636500000000000000000000000000000000000000000000000000000000602082015250565b6000613a9b602483612fba565b9150613aa682613a3f565b604082019050919050565b60006020820190508181036000830152613aca81613a8e565b9050919050565b7f4552433732313a2063616c6c6572206973206e6f7420746f6b656e206f776e6560008201527f72206f7220617070726f76656400000000000000000000000000000000000000602082015250565b6000613b2d602d83612fba565b9150613b3882613ad1565b604082019050919050565b60006020820190508181036000830152613b5c81613b20565b9050919050565b7f596f7520616c7265616479206f776e2074686973204e46540000000000000000600082015250565b6000613b99601883612fba565b9150613ba482613b63565b602082019050919050565b60006020820190508181036000830152613bc881613b8c565b9050919050565b7f506c65617365207375626d6974207468652061736b696e672070726963650000600082015250565b6000613c05601e83612fba565b9150613c1082613bcf565b602082019050919050565b60006020820190508181036000830152613c3481613bf8565b9050919050565b7f496e646578206f7574206f6620626f756e647300000000000000000000000000600082015250565b6000613c71601383612fba565b9150613c7c82613c3b565b602082019050919050565b60006020820190508181036000830152613ca081613c64565b9050919050565b7f4e487b7100000000000000000000000000000000000000000000000000000000600052603260045260246000fd5b7f4e487b7100000000000000000000000000000000000000000000000000000000600052601160045260246000fd5b6000613d1082613061565b9150613d1b83613061565b9250828201905080821115613d3357613d32613cd6565b5b92915050565b6000613d4482613061565b91507fffffffffffffffffffffffffffffffffffffffffffffffffffffffffffffffff8203613d7657613d75613cd6565b5b600182019050919050565b600081905092915050565b6000613d9782612faf565b613da18185613d81565b9350613db1818560208601612fcb565b80840191505092915050565b6000613dc98284613d8c565b915081905092915050565b7f4552433732313a20696e76616c696420746f6b656e2049440000000000000000600082015250565b6000613e0a601883612fba565b9150613e1582613dd4565b602082019050919050565b60006020820190508181036000830152613e3981613dfd565b9050919050565b7f4552433732313a2061646472657373207a65726f206973206e6f74206120766160008201527f6c6964206f776e65720000000000000000000000000000000000000000000000602082015250565b6000613e9c602983612fba565b9150613ea782613e40565b604082019050919050565b60006020820190508181036000830152613ecb81613e8f565b9050919050565b7f5072696365206d757374206265206174206c6561737420312077656900000000600082015250565b6000613f08601c83612fba565b9150613f1382613ed2565b602082019050919050565b60006020820190508181036000830152613f3781613efb565b9050919050565b7f546f6b656e2055524920616c7265616479206578697374730000000000000000600082015250565b6000613f74601883612fba565b9150613f7f82613f3e565b602082019050919050565b60006020820190508181036000830152613fa381613f67565b9050919050565b6000613fb68285613d8c565b9150613fc28284613d8c565b91508190509392505050565b7f4f776e61626c653a206e6577206f776e657220697320746865207a65726f206160008201527f6464726573730000000000000000000000000000000000000000000000000000602082015250565b600061402a602683612fba565b915061403582613fce565b604082019050919050565b600060208201905081810360008301526140598161401d565b9050919050565b7f4552433732313a207472616e736665722066726f6d20696e636f72726563742060008201527f6f776e6572000000000000000000000000000000000000000000000000000000602082015250565b60006140bc602583612fba565b91506140c782614060565b604082019050919050565b600060208201905081810360008301526140eb816140af565b9050919050565b7f4552433732313a207472616e7366657220746f20746865207a65726f2061646460008201527f7265737300000000000000000000000000000000000000000000000000000000602082015250565b600061414e602483612fba565b9150614159826140f2565b604082019050919050565b6000602082019050818103600083015261417d81614141565b9050919050565b7f436f756e7465723a2064656372656d656e74206f766572666c6f770000000000600082015250565b60006141ba601b83612fba565b91506141c582614184565b602082019050919050565b600060208201905081810360008301526141e9816141ad565b9050919050565b7f4f776e61626c653a2063616c6c6572206973206e6f7420746865206f776e6572600082015250565b6000614226602083612fba565b9150614231826141f0565b602082019050919050565b6000602082019050818103600083015261425581614219565b9050919050565b7f4552433732313a20617070726f766520746f2063616c6c657200000000000000600082015250565b6000614292601983612fba565b915061429d8261425c565b602082019050919050565b600060208201905081810360008301526142c181614285565b9050919050565b7f4552433732313a207472616e7366657220746f206e6f6e20455243373231526560008201527f63656976657220696d706c656d656e7465720000000000000000000000000000602082015250565b6000614324603283612fba565b915061432f826142c8565b604082019050919050565b6000602082019050818103600083015261435381614317565b9050919050565b7f45524337323155524953746f726167653a2055524920736574206f66206e6f6e60008201527f6578697374656e7420746f6b656e000000000000000000000000000000000000602082015250565b60006143b6602e83612fba565b91506143c18261435a565b604082019050919050565b600060208201905081810360008301526143e5816143a9565b9050919050565b60008190508160005260206000209050919050565b60006020601f8301049050919050565b600082821b905092915050565b60006008830261444e7fffffffffffffffffffffffffffffffffffffffffffffffffffffffffffffffff82614411565b6144588683614411565b95508019841693508086168417925050509392505050565b6000819050919050565b600061449561449061448b84613061565b614470565b613061565b9050919050565b6000819050919050565b6144af8361447a565b6144c36144bb8261449c565b84845461441e565b825550505050565b600090565b6144d86144cb565b6144e38184846144a6565b505050565b5b81811015614507576144fc6000826144d0565b6001810190506144e9565b5050565b601f82111561454c5761451d816143ec565b61452684614401565b81016020851015614535578190505b61454961454185614401565b8301826144e8565b50505b505050565b600082821c905092915050565b600061456f60001984600802614551565b1980831691505092915050565b6000614588838361455e565b9150826002028217905092915050565b6145a182612faf565b67ffffffffffffffff8111156145ba576145b96133a6565b5b6145c48254613812565b6145cf82828561450b565b600060209050601f83116001811461460257600084156145f0578287015190505b6145fa858261457c565b865550614662565b601f198416614610866143ec565b60005b8281101561463857848901518255600182019150602085019450602081019050614613565b868310156146555784890151614651601f89168261455e565b8355505b6001600288020188555050505b505050505050565b600060808201905061467f600083018761318c565b61468c602083018661318c565b61469960408301856130f6565b6146a66060830184612f85565b95945050505050565b600081519050919050565b600082825260208201905092915050565b60006146d6826146af565b6146e081856146ba565b93506146f0818560208601612fcb565b6146f981612ff5565b840191505092915050565b600060808201905061471960008301876130f6565b61472660208301866130f6565b614733604083018561318c565b818103606083015261474581846146cb565b905095945050505050565b60008151905061475f81612f20565b92915050565b60006020828403121561477b5761477a612eea565b5b600061478984828501614750565b91505092915050565b7f4e487b7100000000000000000000000000000000000000000000000000000000600052601260045260246000fd5b60006147cc82613061565b91506147d783613061565b92508282039050818111156147ef576147ee613cd6565b5b92915050565b7f4e487b7100000000000000000000000000000000000000000000000000000000600052603160045260246000fd5b7f4552433732313a206d696e7420746f20746865207a65726f2061646472657373600082015250565b600061485a602083612fba565b915061486582614824565b602082019050919050565b600060208201905081810360008301526148898161484d565b9050919050565b7f4552433732313a20746f6b656e20616c7265616479206d696e74656400000000600082015250565b60006148c6601c83612fba565b91506148d182614890565b602082019050919050565b600060208201905081810360008301526148f5816148b9565b905091905056fea2646970667358221220855d98022c9c45d27c9c72511c9651afdcdebadee58935fbb3ff2d16232d294b64736f6c63430008120033",
  "immutableReferences": {},
  "source": "// SPDX-License-Identifier: MIT\r\npragma solidity >=0.4.22 <0.9.0;\r\n\r\n\r\nimport \"../node_modules/@openzeppelin/contracts/token/ERC721/extensions/ERC721URIStorage.sol\";\r\nimport \"../node_modules/@openzeppelin/contracts/utils/Counters.sol\";\r\nimport \"../node_modules/@openzeppelin/contracts/access/Ownable.sol\";\r\n\r\ncontract NftMarket is ERC721URIStorage, Ownable {\r\n  using Counters for Counters.Counter;\r\n\r\n  struct NftItem {\r\n    uint tokenId;\r\n    uint price;\r\n    address creator;\r\n    bool isListed;\r\n  }\r\n\r\n  uint public listingPrice = 0.025 ether; // listing price for NFTs\r\n\r\n  Counters.Counter public _listedItems;\r\n  Counters.Counter private _tokenIds;\r\n\r\n  mapping(string => bool) private _usedTokenURIs;  // to check if a tokenURI already exists\r\n  mapping(uint => NftItem) private _idToNftItem;\r\n\r\n\r\n  mapping(address => mapping(uint => uint)) private _ownedTokens;\r\n  mapping(uint => uint) private _idToOwnedIndex;\r\n\r\n  uint256[] private _allNfts;\r\n  mapping(uint => uint) private _idToNftIndex;\r\n\r\n  event NftItemCreated (\r\n    uint tokenId,\r\n    uint price,\r\n    address creator,\r\n    bool isListed\r\n  );\r\n\r\n  constructor() ERC721(\"CreaturesNFT\", \"CNFT\") {}\r\n\r\n//  sets the listing price for NFTs\r\n  function setListingPrice(uint newPrice) external onlyOwner {\r\n    require(newPrice > 0, \"Price must be at least 1 wei\");\r\n    listingPrice = newPrice;\r\n  }\r\n\r\n // returns the NftItem struct for a given tokenId\r\n  function getNftItem(uint tokenId) public view returns (NftItem memory) {\r\n    return _idToNftItem[tokenId];   \r\n  } \r\n\r\n// returns the total number of NFTs listed\r\n  function listedItemsCount() public view returns (uint) {\r\n    return _listedItems.current();\r\n  }\r\n\r\n  // check tokenURI is not used before\r\n  function tokenURIExists(string memory tokenURI) public view returns (bool) {\r\n    return _usedTokenURIs[tokenURI] == true;\r\n  }\r\n\r\n  function totalSupply() public view returns (uint) {\r\n    return _allNfts.length;\r\n  }\r\n\r\n\r\n// return tokens when given an index\r\n  function tokenByIndex(uint index) public view returns (uint) {\r\n    require(index < totalSupply(), \"Index out of bounds\");\r\n    return _allNfts[index];\r\n  }\r\n\r\n// return tokens owned by an address\r\n  function tokenOfOwnerByIndex(address owner, uint index) public view returns (uint) {\r\n    require(index < ERC721.balanceOf(owner), \"Index out of bounds\");\r\n    return _ownedTokens[owner][index];\r\n  }\r\n\r\n\r\n\r\n// return all NFTs on sale\r\n  function getAllNftsOnSale() public view returns (NftItem[] memory) {\r\n    uint allItemsCounts = totalSupply();\r\n    uint currentIndex = 0;\r\n    NftItem[] memory items = new NftItem[](_listedItems.current());\r\n\r\n    for (uint i = 0; i < allItemsCounts; i++) {\r\n      uint tokenId = tokenByIndex(i);\r\n      NftItem storage item = _idToNftItem[tokenId];\r\n\r\n      if (item.isListed == true) {\r\n        items[currentIndex] = item;\r\n        currentIndex += 1;\r\n      }\r\n    }\r\n\r\n    return items;\r\n  }\r\n\r\n\r\n// return all NFTs owned by an address\r\n  function getOwnedNfts() public view returns (NftItem[] memory) {\r\n    uint ownedItemsCount = ERC721.balanceOf(msg.sender);\r\n    NftItem[] memory items = new NftItem[](ownedItemsCount);\r\n\r\n    for (uint i = 0; i < ownedItemsCount; i++) {\r\n      uint tokenId = tokenOfOwnerByIndex(msg.sender, i);\r\n      NftItem storage item = _idToNftItem[tokenId];\r\n      items[i] = item;\r\n    }\r\n\r\n    return items;\r\n  }\r\n\r\n\r\n//  minting a new NFT\r\nfunction mintToken(string memory tokenURI, uint price) public payable returns (uint) {\r\n    require(!tokenURIExists(tokenURI), \"Token URI already exists\");\r\n    require(msg.value == listingPrice, \"Price must be equal to listing price\");\r\n\r\n    _tokenIds.increment();\r\n    _listedItems.increment();\r\n\r\n    uint newTokenId = _tokenIds.current();\r\n\r\n    _safeMint(msg.sender, newTokenId);\r\n    _setTokenURI(newTokenId, tokenURI);\r\n    _createNftItem(newTokenId, price);\r\n    _usedTokenURIs[tokenURI] = true;  // setting tokenURI as used so can't be used again \r\n\r\n    return newTokenId;\r\n  }\r\n\r\n\r\n// buying a NFT\r\n  function buyNft(uint tokenId ) public payable {\r\n    \r\n    uint price = _idToNftItem[tokenId].price;  // get price from mapping\r\n    address owner = ERC721.ownerOf(tokenId); // get current owner of NFT\r\n\r\n    require(msg.sender != owner, \"You already own this NFT\");\r\n    require(msg.value == price, \"Please submit the asking price\");\r\n\r\n    _idToNftItem[tokenId].isListed = false;  // unlist our nft \r\n    _listedItems.decrement();               // decrement the number of listed items for sale\r\n\r\n    _transfer(owner, msg.sender, tokenId); // transfer ownership of NFT to buyer\r\n    payable(owner).transfer(msg.value);     // transfer money to seller\r\n  }\r\n\r\n\r\n\r\n//  placing a NFT on sale\r\n  function placeNftOnSale(uint tokenId, uint newPrice) public payable {\r\n    require(ERC721.ownerOf(tokenId) == msg.sender, \"You are not owner of this nft\");\r\n    require(_idToNftItem[tokenId].isListed == false, \"Item is already on sale\");\r\n    require(msg.value == listingPrice, \"Price must be equal to listing price\");\r\n\r\n    _idToNftItem[tokenId].isListed = true;\r\n    _idToNftItem[tokenId].price = newPrice;\r\n    _listedItems.increment();\r\n  }\r\n\r\n\r\n// creating a new NftItem and adding it to the mapping\r\n  function _createNftItem(uint tokenId, uint price ) private {\r\n    require(price > 0, \"Price must be at least 1 wei\");\r\n\r\n    _idToNftItem[tokenId] = NftItem( tokenId, price, msg.sender,true ); //mapping struct\r\n\r\n    emit NftItemCreated(tokenId, price, msg.sender, true);\r\n  }\r\n\r\n\r\n//  override ERC721 functions to add enumeration\r\n  function _beforeTokenTransfer( address from, address to, uint tokenId,uint256 batchSize)\r\n   internal virtual override {\r\n    super._beforeTokenTransfer(from, to, tokenId, batchSize);\r\n\r\n    if (from == address(0)) {\r\n      _addTokenToAllTokensEnumeration(tokenId);\r\n    } else if (from != to) {\r\n      _removeTokenFromOwnerEnumeration(from, tokenId);\r\n    }\r\n\r\n    if (to == address(0)) {\r\n      _removeTokenFromAllTokensEnumeration(tokenId);\r\n    } else if (to != from) {\r\n      _addTokenToOwnerEnumeration(to, tokenId);\r\n    }\r\n  }\r\n\r\n  function _addTokenToAllTokensEnumeration(uint tokenId) private {\r\n    _idToNftIndex[tokenId] = _allNfts.length;\r\n    _allNfts.push(tokenId);\r\n  }\r\n\r\n  function _addTokenToOwnerEnumeration(address to, uint tokenId) private {\r\n    uint length = ERC721.balanceOf(to);\r\n    _ownedTokens[to][length] = tokenId;\r\n    _idToOwnedIndex[tokenId] = length;\r\n  }\r\n\r\n  function _removeTokenFromOwnerEnumeration(address from, uint tokenId) private {\r\n    uint lastTokenIndex = ERC721.balanceOf(from) - 1;\r\n    uint tokenIndex = _idToOwnedIndex[tokenId];\r\n\r\n    if (tokenIndex != lastTokenIndex) {\r\n      uint lastTokenId = _ownedTokens[from][lastTokenIndex];\r\n\r\n      _ownedTokens[from][tokenIndex] = lastTokenId;\r\n      _idToOwnedIndex[lastTokenId] = tokenIndex;\r\n    }\r\n\r\n    delete _idToOwnedIndex[tokenId];\r\n    delete _ownedTokens[from][lastTokenIndex];\r\n  }\r\n\r\n  function _removeTokenFromAllTokensEnumeration(uint tokenId) private {\r\n    uint lastTokenIndex = _allNfts.length - 1;\r\n    uint tokenIndex = _idToNftIndex[tokenId];\r\n    uint lastTokenId = _allNfts[lastTokenIndex];\r\n\r\n    _allNfts[tokenIndex] = lastTokenId;\r\n    _idToNftIndex[lastTokenId] = tokenIndex;\r\n\r\n    delete _idToNftIndex[tokenId];\r\n    _allNfts.pop();\r\n  }\r\n}",
  "sourcePath": "D:\\Projects\\NFT\\base_1\\truffle\\contracts\\NftMarket.sol",
  "compiler": {
    "name": "solc",
    "version": "0.8.18+commit.87f61d96.Emscripten.clang"
  },
  "schemaVersion": "3.4.13",
  "updatedAt": "2023-03-14T09:17:08.991Z",
  "networkType": "ethereum",
  "devdoc": {
    "events": {
      "Approval(address,address,uint256)": {
        "details": "Emitted when `owner` enables `approved` to manage the `tokenId` token."
      },
      "ApprovalForAll(address,address,bool)": {
        "details": "Emitted when `owner` enables or disables (`approved`) `operator` to manage all of its assets."
      },
      "Transfer(address,address,uint256)": {
        "details": "Emitted when `tokenId` token is transferred from `from` to `to`."
      }
    },
    "kind": "dev",
    "methods": {
      "approve(address,uint256)": {
        "details": "See {IERC721-approve}."
      },
      "balanceOf(address)": {
        "details": "See {IERC721-balanceOf}."
      },
      "getApproved(uint256)": {
        "details": "See {IERC721-getApproved}."
      },
      "isApprovedForAll(address,address)": {
        "details": "See {IERC721-isApprovedForAll}."
      },
      "name()": {
        "details": "See {IERC721Metadata-name}."
      },
      "owner()": {
        "details": "Returns the address of the current owner."
      },
      "ownerOf(uint256)": {
        "details": "See {IERC721-ownerOf}."
      },
      "renounceOwnership()": {
        "details": "Leaves the contract without owner. It will not be possible to call `onlyOwner` functions anymore. Can only be called by the current owner. NOTE: Renouncing ownership will leave the contract without an owner, thereby removing any functionality that is only available to the owner."
      },
      "safeTransferFrom(address,address,uint256)": {
        "details": "See {IERC721-safeTransferFrom}."
      },
      "safeTransferFrom(address,address,uint256,bytes)": {
        "details": "See {IERC721-safeTransferFrom}."
      },
      "setApprovalForAll(address,bool)": {
        "details": "See {IERC721-setApprovalForAll}."
      },
      "supportsInterface(bytes4)": {
        "details": "See {IERC165-supportsInterface}."
      },
      "symbol()": {
        "details": "See {IERC721Metadata-symbol}."
      },
      "tokenURI(uint256)": {
        "details": "See {IERC721Metadata-tokenURI}."
      },
      "transferFrom(address,address,uint256)": {
        "details": "See {IERC721-transferFrom}."
      },
      "transferOwnership(address)": {
        "details": "Transfers ownership of the contract to a new account (`newOwner`). Can only be called by the current owner."
      }
    },
    "version": 1
  },
  "userdoc": {
    "kind": "user",
    "methods": {},
    "version": 1
  }
}